{
  "_format": "hh-sol-artifact-1",
  "contractName": "DApp",
  "sourceName": "contracts/DAO.sol",
  "abi": [
    {
      "inputs": [],
      "stateMutability": "nonpayable",
      "type": "constructor"
    },
    {
      "inputs": [],
      "name": "DAOName",
      "outputs": [
        {
          "internalType": "string",
          "name": "",
          "type": "string"
        }
      ],
      "stateMutability": "view",
      "type": "function"
    },
    {
      "inputs": [],
      "name": "depositBalance",
      "outputs": [],
      "stateMutability": "payable",
      "type": "function"
    },
    {
      "inputs": [],
      "name": "getCurrentBalance",
      "outputs": [
        {
          "internalType": "uint256",
          "name": "",
          "type": "uint256"
        }
      ],
      "stateMutability": "view",
      "type": "function"
    },
    {
      "inputs": [],
      "name": "getCurrentThreshold",
      "outputs": [
        {
          "internalType": "uint256",
          "name": "",
          "type": "uint256"
        }
      ],
      "stateMutability": "view",
      "type": "function"
    },
    {
      "inputs": [],
      "name": "owner",
      "outputs": [
        {
          "internalType": "address",
          "name": "",
          "type": "address"
        }
      ],
      "stateMutability": "view",
      "type": "function"
    },
    {
      "inputs": [
        {
          "internalType": "string",
          "name": "_name",
          "type": "string"
        }
      ],
      "name": "setDAOName",
      "outputs": [],
      "stateMutability": "nonpayable",
      "type": "function"
    },
    {
      "inputs": [
        {
          "internalType": "uint256",
          "name": "_value",
          "type": "uint256"
        }
      ],
      "name": "setThreshold",
      "outputs": [],
      "stateMutability": "nonpayable",
      "type": "function"
    },
    {
      "inputs": [
        {
          "internalType": "address payable",
          "name": "_to",
          "type": "address"
        },
        {
          "internalType": "uint256",
          "name": "_ammount",
          "type": "uint256"
        }
      ],
      "name": "withdrawBalancea",
      "outputs": [],
      "stateMutability": "nonpayable",
      "type": "function"
    }
  ],
  "bytecode": "0x608060405234801561001057600080fd5b50336000806101000a81548173ffffffffffffffffffffffffffffffffffffffff021916908373ffffffffffffffffffffffffffffffffffffffff160217905550610f8c806100606000396000f3fe60806040526004361061007b5760003560e01c8063960bfe041161004e578063960bfe0414610109578063a1de78e214610132578063a57497101461015b578063aceae4a9146101865761007b565b80631b71bf6e1461008057806360e16697146100ab57806361bc1a49146100d45780638da5cb5b146100de575b600080fd5b34801561008c57600080fd5b506100956101b1565b6040516100a291906106ab565b60405180910390f35b3480156100b757600080fd5b506100d260048036038101906100cd919061075a565b6101f8565b005b6100dc61031b565b005b3480156100ea57600080fd5b506100f3610438565b60405161010091906107bb565b60405180910390f35b34801561011557600080fd5b50610130600480360381019061012b91906107d6565b61045c565b005b34801561013e57600080fd5b5061015960048036038101906101549190610868565b6105a7565b005b34801561016757600080fd5b506101706105bd565b60405161017d91906106ab565b60405180910390f35b34801561019257600080fd5b5061019b610604565b6040516101a89190610945565b60405180910390f35b6000600260003373ffffffffffffffffffffffffffffffffffffffff1673ffffffffffffffffffffffffffffffffffffffff16815260200190815260200160002054905090565b600360003373ffffffffffffffffffffffffffffffffffffffff1673ffffffffffffffffffffffffffffffffffffffff1681526020019081526020016000205481111561027a576040517f08c379a00000000000000000000000000000000000000000000000000000000081526004016102719061098d565b60405180910390fd5b80600360003373ffffffffffffffffffffffffffffffffffffffff1673ffffffffffffffffffffffffffffffffffffffff16815260200190815260200160002060008282546102c991906109dc565b925050819055508173ffffffffffffffffffffffffffffffffffffffff166108fc829081150290604051600060405180830381858888f19350505050158015610316573d6000803e3d6000fd5b505050565b6000600260003373ffffffffffffffffffffffffffffffffffffffff1673ffffffffffffffffffffffffffffffffffffffff168152602001908152602001600020541161039d576040517f08c379a000000000000000000000000000000000000000000000000000000000815260040161039490610a5c565b60405180910390fd5b600034116103e0576040517f08c379a00000000000000000000000000000000000000000000000000000000081526004016103d790610ac8565b60405180910390fd5b34600360003373ffffffffffffffffffffffffffffffffffffffff1673ffffffffffffffffffffffffffffffffffffffff168152602001908152602001600020600082825461042f9190610ae8565b92505081905550565b60008054906101000a900473ffffffffffffffffffffffffffffffffffffffff1681565b600260003373ffffffffffffffffffffffffffffffffffffffff1673ffffffffffffffffffffffffffffffffffffffff16815260200190815260200160002054600360003373ffffffffffffffffffffffffffffffffffffffff1673ffffffffffffffffffffffffffffffffffffffff16815260200190815260200160002054101561051d576040517f08c379a000000000000000000000000000000000000000000000000000000000815260040161051490610b8e565b60405180910390fd5b60008111610560576040517f08c379a000000000000000000000000000000000000000000000000000000000815260040161055790610c20565b60405180910390fd5b80600260003373ffffffffffffffffffffffffffffffffffffffff1673ffffffffffffffffffffffffffffffffffffffff1681526020019081526020016000208190555050565b8181600191826105b8929190610e86565b505050565b6000600360003373ffffffffffffffffffffffffffffffffffffffff1673ffffffffffffffffffffffffffffffffffffffff16815260200190815260200160002054905090565b6001805461061190610ca9565b80601f016020809104026020016040519081016040528092919081815260200182805461063d90610ca9565b801561068a5780601f1061065f5761010080835404028352916020019161068a565b820191906000526020600020905b81548152906001019060200180831161066d57829003601f168201915b505050505081565b6000819050919050565b6106a581610692565b82525050565b60006020820190506106c0600083018461069c565b92915050565b600080fd5b600080fd5b600073ffffffffffffffffffffffffffffffffffffffff82169050919050565b60006106fb826106d0565b9050919050565b61070b816106f0565b811461071657600080fd5b50565b60008135905061072881610702565b92915050565b61073781610692565b811461074257600080fd5b50565b6000813590506107548161072e565b92915050565b60008060408385031215610771576107706106c6565b5b600061077f85828601610719565b925050602061079085828601610745565b9150509250929050565b60006107a5826106d0565b9050919050565b6107b58161079a565b82525050565b60006020820190506107d060008301846107ac565b92915050565b6000602082840312156107ec576107eb6106c6565b5b60006107fa84828501610745565b91505092915050565b600080fd5b600080fd5b600080fd5b60008083601f84011261082857610827610803565b5b8235905067ffffffffffffffff81111561084557610844610808565b5b6020830191508360018202830111156108615761086061080d565b5b9250929050565b6000806020838503121561087f5761087e6106c6565b5b600083013567ffffffffffffffff81111561089d5761089c6106cb565b5b6108a985828601610812565b92509250509250929050565b600081519050919050565b600082825260208201905092915050565b60005b838110156108ef5780820151818401526020810190506108d4565b60008484015250505050565b6000601f19601f8301169050919050565b6000610917826108b5565b61092181856108c0565b93506109318185602086016108d1565b61093a816108fb565b840191505092915050565b6000602082019050818103600083015261095f818461090c565b905092915050565b50565b60006109776000836108c0565b915061098282610967565b600082019050919050565b600060208201905081810360008301526109a68161096a565b9050919050565b7f4e487b7100000000000000000000000000000000000000000000000000000000600052601160045260246000fd5b60006109e782610692565b91506109f283610692565b9250828203905081811115610a0a57610a096109ad565b5b92915050565b7f596f75206d757374207365742061207468726573686f6c642066697273740000600082015250565b6000610a46601e836108c0565b9150610a5182610a10565b602082019050919050565b60006020820190508181036000830152610a7581610a39565b9050919050565b7f596f75206d757374206465706f7369742061207265616c20616d6d6f756e7400600082015250565b6000610ab2601f836108c0565b9150610abd82610a7c565b602082019050919050565b60006020820190508181036000830152610ae181610aa5565b9050919050565b6000610af382610692565b9150610afe83610692565b9250828201905080821115610b1657610b156109ad565b5b92915050565b7f596f75206d757374207265616368207468652063757272656e7420746872657360008201527f686f6c64206265666f7265206d6f64696679696e672069740000000000000000602082015250565b6000610b786038836108c0565b9150610b8382610b1c565b604082019050919050565b60006020820190508181036000830152610ba781610b6b565b9050919050565b7f5468207468726573686f6c64206d75737420626520677265617468657220746860008201527f616e203000000000000000000000000000000000000000000000000000000000602082015250565b6000610c0a6024836108c0565b9150610c1582610bae565b604082019050919050565b60006020820190508181036000830152610c3981610bfd565b9050919050565b600082905092915050565b7f4e487b7100000000000000000000000000000000000000000000000000000000600052604160045260246000fd5b7f4e487b7100000000000000000000000000000000000000000000000000000000600052602260045260246000fd5b60006002820490506001821680610cc157607f821691505b602082108103610cd457610cd3610c7a565b5b50919050565b60008190508160005260206000209050919050565b60006020601f8301049050919050565b600082821b905092915050565b600060088302610d3c7fffffffffffffffffffffffffffffffffffffffffffffffffffffffffffffffff82610cff565b610d468683610cff565b95508019841693508086168417925050509392505050565b6000819050919050565b6000610d83610d7e610d7984610692565b610d5e565b610692565b9050919050565b6000819050919050565b610d9d83610d68565b610db1610da982610d8a565b848454610d0c565b825550505050565b600090565b610dc6610db9565b610dd1818484610d94565b505050565b5b81811015610df557610dea600082610dbe565b600181019050610dd7565b5050565b601f821115610e3a57610e0b81610cda565b610e1484610cef565b81016020851015610e23578190505b610e37610e2f85610cef565b830182610dd6565b50505b505050565b600082821c905092915050565b6000610e5d60001984600802610e3f565b1980831691505092915050565b6000610e768383610e4c565b9150826002028217905092915050565b610e908383610c40565b67ffffffffffffffff811115610ea957610ea8610c4b565b5b610eb38254610ca9565b610ebe828285610df9565b6000601f831160018114610eed5760008415610edb578287013590505b610ee58582610e6a565b865550610f4d565b601f198416610efb86610cda565b60005b82811015610f2357848901358255600182019150602085019450602081019050610efe565b86831015610f405784890135610f3c601f891682610e4c565b8355505b6001600288020188555050505b5050505050505056fea2646970667358221220638ee6ee4cbb8ff944e50fd075d198eecf94eae0a7b35cbf746095b9bed7e3ef64736f6c63430008120033",
  "linkReferences": {},
  "deployedLinkReferences": {}
}